{
	"_format": "hh-sol-artifact-1",
	"contractName": "GameOfLife",
	"sourceName": "contracts/game-of-life.sol",
	"abi": [
		{
			"inputs": [],
			"stateMutability": "nonpayable",
			"type": "constructor"
		},
		{
			"anonymous": false,
			"inputs": [
				{
					"indexed": true,
					"internalType": "address",
					"name": "user",
					"type": "address"
				},
				{
					"indexed": false,
					"internalType": "uint256",
					"name": "timestamp",
					"type": "uint256"
				},
				{
					"indexed": false,
					"internalType": "uint256",
					"name": "startNodeAmount",
					"type": "uint256"
				},
				{
					"indexed": false,
					"internalType": "uint256",
					"name": "generationsAlive",
					"type": "uint256"
				},
				{
					"indexed": false,
					"internalType": "uint256",
					"name": "maxLivingNodesRecord",
					"type": "uint256"
				}
			],
			"name": "NewSetup",
			"type": "event"
		},
		{
			"anonymous": false,
			"inputs": [
				{
					"indexed": true,
					"internalType": "address",
					"name": "user",
					"type": "address"
				},
				{
					"indexed": false,
					"internalType": "uint256",
					"name": "setupId",
					"type": "uint256"
				},
				{
					"indexed": false,
					"internalType": "uint256",
					"name": "likes",
					"type": "uint256"
				}
			],
			"name": "SetupLiked",
			"type": "event"
		},
		{
			"inputs": [
				{
					"internalType": "address",
					"name": "",
					"type": "address"
				}
			],
			"name": "accountSetup",
			"outputs": [
				{
					"internalType": "address",
					"name": "user",
					"type": "address"
				},
				{
					"internalType": "uint256",
					"name": "startNodeAmount",
					"type": "uint256"
				},
				{
					"internalType": "uint256",
					"name": "generationsAlive",
					"type": "uint256"
				},
				{
					"internalType": "uint256",
					"name": "maxLivingNodesRecord",
					"type": "uint256"
				},
				{
					"internalType": "uint256",
					"name": "timestamp",
					"type": "uint256"
				},
				{
					"internalType": "uint256",
					"name": "setupId",
					"type": "uint256"
				},
				{
					"internalType": "uint256",
					"name": "likes",
					"type": "uint256"
				},
				{
					"internalType": "string",
					"name": "message",
					"type": "string"
				}
			],
			"stateMutability": "view",
			"type": "function"
		},
		{
			"inputs": [
				{
					"internalType": "address",
					"name": "",
					"type": "address"
				}
			],
			"name": "accountsSetupCount",
			"outputs": [
				{
					"internalType": "uint256",
					"name": "",
					"type": "uint256"
				}
			],
			"stateMutability": "view",
			"type": "function"
		},
		{
			"inputs": [
				{
					"internalType": "uint256",
					"name": "",
					"type": "uint256"
				}
			],
			"name": "accountsSubmitted",
			"outputs": [
				{
					"internalType": "address",
					"name": "",
					"type": "address"
				}
			],
			"stateMutability": "view",
			"type": "function"
		},
		{
			"inputs": [
				{
					"internalType": "address",
					"name": "_address",
					"type": "address"
				}
			],
			"name": "getAccountSetup",
			"outputs": [
				{
					"components": [
						{
							"internalType": "address",
							"name": "user",
							"type": "address"
						},
						{
							"internalType": "uint256",
							"name": "startNodeAmount",
							"type": "uint256"
						},
						{
							"internalType": "uint256",
							"name": "generationsAlive",
							"type": "uint256"
						},
						{
							"internalType": "uint256",
							"name": "maxLivingNodesRecord",
							"type": "uint256"
						},
						{
							"internalType": "uint256[]",
							"name": "x_coordinates",
							"type": "uint256[]"
						},
						{
							"internalType": "uint256[]",
							"name": "y_coordinates",
							"type": "uint256[]"
						},
						{
							"internalType": "uint256",
							"name": "timestamp",
							"type": "uint256"
						},
						{
							"internalType": "uint256",
							"name": "setupId",
							"type": "uint256"
						},
						{
							"internalType": "uint256",
							"name": "likes",
							"type": "uint256"
						},
						{
							"internalType": "string",
							"name": "message",
							"type": "string"
						}
					],
					"internalType": "struct GameOfLife.GameSetup",
					"name": "",
					"type": "tuple"
				}
			],
			"stateMutability": "view",
			"type": "function"
		},
		{
			"inputs": [
				{
					"internalType": "address",
					"name": "_address",
					"type": "address"
				}
			],
			"name": "getAccountSetupCount",
			"outputs": [
				{
					"internalType": "uint256",
					"name": "",
					"type": "uint256"
				}
			],
			"stateMutability": "view",
			"type": "function"
		},
		{
			"inputs": [],
			"name": "getAccountsSubmitted",
			"outputs": [
				{
					"internalType": "address[]",
					"name": "",
					"type": "address[]"
				}
			],
			"stateMutability": "view",
			"type": "function"
		},
		{
			"inputs": [],
			"name": "getAllSetups",
			"outputs": [
				{
					"components": [
						{
							"internalType": "address",
							"name": "user",
							"type": "address"
						},
						{
							"internalType": "uint256",
							"name": "startNodeAmount",
							"type": "uint256"
						},
						{
							"internalType": "uint256",
							"name": "generationsAlive",
							"type": "uint256"
						},
						{
							"internalType": "uint256",
							"name": "maxLivingNodesRecord",
							"type": "uint256"
						},
						{
							"internalType": "uint256[]",
							"name": "x_coordinates",
							"type": "uint256[]"
						},
						{
							"internalType": "uint256[]",
							"name": "y_coordinates",
							"type": "uint256[]"
						},
						{
							"internalType": "uint256",
							"name": "timestamp",
							"type": "uint256"
						},
						{
							"internalType": "uint256",
							"name": "setupId",
							"type": "uint256"
						},
						{
							"internalType": "uint256",
							"name": "likes",
							"type": "uint256"
						},
						{
							"internalType": "string",
							"name": "message",
							"type": "string"
						}
					],
					"internalType": "struct GameOfLife.GameSetup[]",
					"name": "",
					"type": "tuple[]"
				}
			],
			"stateMutability": "view",
			"type": "function"
		},
		{
			"inputs": [
				{
					"internalType": "uint256",
					"name": "setupId",
					"type": "uint256"
				}
			],
			"name": "getSetupById",
			"outputs": [
				{
					"components": [
						{
							"internalType": "address",
							"name": "user",
							"type": "address"
						},
						{
							"internalType": "uint256",
							"name": "startNodeAmount",
							"type": "uint256"
						},
						{
							"internalType": "uint256",
							"name": "generationsAlive",
							"type": "uint256"
						},
						{
							"internalType": "uint256",
							"name": "maxLivingNodesRecord",
							"type": "uint256"
						},
						{
							"internalType": "uint256[]",
							"name": "x_coordinates",
							"type": "uint256[]"
						},
						{
							"internalType": "uint256[]",
							"name": "y_coordinates",
							"type": "uint256[]"
						},
						{
							"internalType": "uint256",
							"name": "timestamp",
							"type": "uint256"
						},
						{
							"internalType": "uint256",
							"name": "setupId",
							"type": "uint256"
						},
						{
							"internalType": "uint256",
							"name": "likes",
							"type": "uint256"
						},
						{
							"internalType": "string",
							"name": "message",
							"type": "string"
						}
					],
					"internalType": "struct GameOfLife.GameSetup",
					"name": "",
					"type": "tuple"
				}
			],
			"stateMutability": "view",
			"type": "function"
		},
		{
			"inputs": [],
			"name": "getTotalSetupsCount",
			"outputs": [
				{
					"internalType": "uint256",
					"name": "",
					"type": "uint256"
				}
			],
			"stateMutability": "view",
			"type": "function"
		},
		{
			"inputs": [
				{
					"internalType": "uint256",
					"name": "setupId",
					"type": "uint256"
				}
			],
			"name": "likeSetup",
			"outputs": [],
			"stateMutability": "nonpayable",
			"type": "function"
		},
		{
			"inputs": [
				{
					"internalType": "uint256",
					"name": "",
					"type": "uint256"
				}
			],
			"name": "setupsById",
			"outputs": [
				{
					"internalType": "address",
					"name": "user",
					"type": "address"
				},
				{
					"internalType": "uint256",
					"name": "startNodeAmount",
					"type": "uint256"
				},
				{
					"internalType": "uint256",
					"name": "generationsAlive",
					"type": "uint256"
				},
				{
					"internalType": "uint256",
					"name": "maxLivingNodesRecord",
					"type": "uint256"
				},
				{
					"internalType": "uint256",
					"name": "timestamp",
					"type": "uint256"
				},
				{
					"internalType": "uint256",
					"name": "setupId",
					"type": "uint256"
				},
				{
					"internalType": "uint256",
					"name": "likes",
					"type": "uint256"
				},
				{
					"internalType": "string",
					"name": "message",
					"type": "string"
				}
			],
			"stateMutability": "view",
			"type": "function"
		},
		{
			"inputs": [
				{
					"internalType": "uint256",
					"name": "startNodeAmount",
					"type": "uint256"
				},
				{
					"internalType": "uint256",
					"name": "generationsAlive",
					"type": "uint256"
				},
				{
					"internalType": "uint256",
					"name": "maxLivingNodesRecord",
					"type": "uint256"
				},
				{
					"internalType": "uint256[]",
					"name": "x_coordinates",
					"type": "uint256[]"
				},
				{
					"internalType": "uint256[]",
					"name": "y_coordinates",
					"type": "uint256[]"
				},
				{
					"internalType": "string",
					"name": "message",
					"type": "string"
				}
			],
			"name": "submitGameSetup",
			"outputs": [],
			"stateMutability": "nonpayable",
			"type": "function"
		}
	],
	"bytecode": "0x6080604052600080553480156200001557600080fd5b50620000616040518060400160405280600c81526020017f47616d65206f66204c69666500000000000000000000000000000000000000008152506200006760201b620011cc1760201c565b620001fb565b62000107816040516024016200007e9190620001d7565b6040516020818303038152906040527f41304fac000000000000000000000000000000000000000000000000000000007bffffffffffffffffffffffffffffffffffffffffffffffffffffffff19166020820180517bffffffffffffffffffffffffffffffffffffffffffffffffffffffff83818316178352505050506200010a60201b60201c565b50565b60008151905060006a636f6e736f6c652e6c6f679050602083016000808483855afa5050505050565b600081519050919050565b600082825260208201905092915050565b60005b838110156200016f57808201518184015260208101905062000152565b838111156200017f576000848401525b50505050565b6000601f19601f8301169050919050565b6000620001a38262000133565b620001af81856200013e565b9350620001c18185602086016200014f565b620001cc8162000185565b840191505092915050565b60006020820190508181036000830152620001f3818462000196565b905092915050565b6121bf806200020b6000396000f3fe608060405234801561001057600080fd5b50600436106100b45760003560e01c80636c3e9387116100715780636c3e9387146101ba5780638338e151146101ea5780638b796aeb1461021a578063de23351e14610238578063fa3ca75e1461026f578063fb01c2131461028b576100b4565b806302151a7d146100b957806304ad83a2146100e95780632707344d1461011957806328b335fd146101375780633622e51f14610167578063683d83b514610183575b600080fd5b6100d360048036038101906100ce91906114cd565b6102a9565b6040516100e0919061153b565b60405180910390f35b61010360048036038101906100fe91906114cd565b6102e8565b60405161011091906117a4565b60405180910390f35b6101216104ea565b60405161012e9190611875565b60405180910390f35b610151600480360381019061014c91906118c3565b610578565b60405161015e91906117a4565b60405180910390f35b610181600480360381019061017c9190611aed565b6107ac565b005b61019d600480360381019061019891906114cd565b610c10565b6040516101b1989796959493929190611c27565b60405180910390f35b6101d460048036038101906101cf91906118c3565b610d00565b6040516101e19190611cac565b60405180910390f35b61020460048036038101906101ff91906118c3565b610d18565b6040516102119190611cac565b60405180910390f35b610222610d66565b60405161022f9190611cac565b60405180910390f35b610252600480360381019061024d91906118c3565b610db1565b604051610266989796959493929190611c27565b60405180910390f35b610289600480360381019061028491906114cd565b610ea1565b005b610293610f2c565b6040516102a09190611e71565b60405180910390f35b600181815481106102b957600080fd5b906000526020600020016000915054906101000a900473ffffffffffffffffffffffffffffffffffffffff1681565b6102f061132a565b60046000838152602001908152602001600020604051806101400160405290816000820160009054906101000a900473ffffffffffffffffffffffffffffffffffffffff1673ffffffffffffffffffffffffffffffffffffffff1673ffffffffffffffffffffffffffffffffffffffff168152602001600182015481526020016002820154815260200160038201548152602001600482018054806020026020016040519081016040528092919081815260200182805480156103d257602002820191906000526020600020905b8154815260200190600101908083116103be575b505050505081526020016005820180548060200260200160405190810160405280929190818152602001828054801561042a57602002820191906000526020600020905b815481526020019060010190808311610416575b5050505050815260200160068201548152602001600782015481526020016008820154815260200160098201805461046190611ec2565b80601f016020809104026020016040519081016040528092919081815260200182805461048d90611ec2565b80156104da5780601f106104af576101008083540402835291602001916104da565b820191906000526020600020905b8154815290600101906020018083116104bd57829003601f168201915b5050505050815250509050919050565b6060600180548060200260200160405190810160405280929190818152602001828054801561056e57602002820191906000526020600020905b8160009054906101000a900473ffffffffffffffffffffffffffffffffffffffff1673ffffffffffffffffffffffffffffffffffffffff1681526020019060010190808311610524575b5050505050905090565b61058061132a565b6000600360008473ffffffffffffffffffffffffffffffffffffffff1673ffffffffffffffffffffffffffffffffffffffff168152602001908152602001600020604051806101400160405290816000820160009054906101000a900473ffffffffffffffffffffffffffffffffffffffff1673ffffffffffffffffffffffffffffffffffffffff1673ffffffffffffffffffffffffffffffffffffffff1681526020016001820154815260200160028201548152602001600382015481526020016004820180548060200260200160405190810160405280929190818152602001828054801561069057602002820191906000526020600020905b81548152602001906001019080831161067c575b50505050508152602001600582018054806020026020016040519081016040528092919081815260200182805480156106e857602002820191906000526020600020905b8154815260200190600101908083116106d4575b5050505050815260200160068201548152602001600782015481526020016008820154815260200160098201805461071f90611ec2565b80601f016020809104026020016040519081016040528092919081815260200182805461074b90611ec2565b80156107985780601f1061076d57610100808354040283529160200191610798565b820191906000526020600020905b81548152906001019060200180831161077b57829003601f168201915b505050505081525050905080915050919050565b600083511180156107be575060008251115b80156107cb575081518351145b80156107d75750825186145b610816576040517f08c379a000000000000000000000000000000000000000000000000000000000815260040161080d90611f40565b60405180910390fd5b6000851180156108265750600084115b610865576040517f08c379a000000000000000000000000000000000000000000000000000000000815260040161085c90611fac565b60405180910390fd5b60016000808282546108779190611ffb565b925050819055506000805490506001339080600181540180825580915050600190039060005260206000200160009091909190916101000a81548173ffffffffffffffffffffffffffffffffffffffff021916908373ffffffffffffffffffffffffffffffffffffffff1602179055506001600260003373ffffffffffffffffffffffffffffffffffffffff1673ffffffffffffffffffffffffffffffffffffffff16815260200190815260200160002060008282546109379190611ffb565b925050819055506000806040518061014001604052803373ffffffffffffffffffffffffffffffffffffffff1681526020018a8152602001898152602001888152602001878152602001868152602001428152602001848152602001838152602001858152509050806004600085815260200190815260200160002060008201518160000160006101000a81548173ffffffffffffffffffffffffffffffffffffffff021916908373ffffffffffffffffffffffffffffffffffffffff1602179055506020820151816001015560408201518160020155606082015181600301556080820151816004019080519060200190610a34929190611393565b5060a0820151816005019080519060200190610a51929190611393565b5060c0820151816006015560e082015181600701556101008201518160080155610120820151816009019080519060200190610a8e9291906113e0565b5090505080600360003373ffffffffffffffffffffffffffffffffffffffff1673ffffffffffffffffffffffffffffffffffffffff16815260200190815260200160002060008201518160000160006101000a81548173ffffffffffffffffffffffffffffffffffffffff021916908373ffffffffffffffffffffffffffffffffffffffff1602179055506020820151816001015560408201518160020155606082015181600301556080820151816004019080519060200190610b53929190611393565b5060a0820151816005019080519060200190610b70929190611393565b5060c0820151816006015560e082015181600701556101008201518160080155610120820151816009019080519060200190610bad9291906113e0565b509050503373ffffffffffffffffffffffffffffffffffffffff167f7fdbbe28b65f6a5d50234feb1f04fa1db7a21f5a3565848ae68594946afd700b428b8b8b604051610bfd9493929190612051565b60405180910390a2505050505050505050565b60046020528060005260406000206000915090508060000160009054906101000a900473ffffffffffffffffffffffffffffffffffffffff1690806001015490806002015490806003015490806006015490806007015490806008015490806009018054610c7d90611ec2565b80601f0160208091040260200160405190810160405280929190818152602001828054610ca990611ec2565b8015610cf65780601f10610ccb57610100808354040283529160200191610cf6565b820191906000526020600020905b815481529060010190602001808311610cd957829003601f168201915b5050505050905088565b60026020528060005260406000206000915090505481565b600080600260008473ffffffffffffffffffffffffffffffffffffffff1673ffffffffffffffffffffffffffffffffffffffff16815260200190815260200160002054905080915050919050565b6000610da96040518060400160405280601881526020017f5765206861766520256420746f74616c20536574757073210000000000000000815250600054611265565b600054905090565b60036020528060005260406000206000915090508060000160009054906101000a900473ffffffffffffffffffffffffffffffffffffffff1690806001015490806002015490806003015490806006015490806007015490806008015490806009018054610e1e90611ec2565b80601f0160208091040260200160405190810160405280929190818152602001828054610e4a90611ec2565b8015610e975780601f10610e6c57610100808354040283529160200191610e97565b820191906000526020600020905b815481529060010190602001808311610e7a57829003601f168201915b5050505050905088565b60006004600083815260200190815260200160002090506001816008016000828254610ecd9190611ffb565b925050819055503373ffffffffffffffffffffffffffffffffffffffff167f404e123c64a55edaf06a0fb4437f48d798e54a59a8ff4438b874220d66d2b0f9838360080154604051610f20929190612096565b60405180910390a25050565b60606000805467ffffffffffffffff811115610f4b57610f4a6118f5565b5b604051908082528060200260200182016040528015610f8457816020015b610f7161132a565b815260200190600190039081610f695790505b50905060005b6000548110156111c45760046000600183610fa59190611ffb565b8152602001908152602001600020604051806101400160405290816000820160009054906101000a900473ffffffffffffffffffffffffffffffffffffffff1673ffffffffffffffffffffffffffffffffffffffff1673ffffffffffffffffffffffffffffffffffffffff1681526020016001820154815260200160028201548152602001600382015481526020016004820180548060200260200160405190810160405280929190818152602001828054801561108257602002820191906000526020600020905b81548152602001906001019080831161106e575b50505050508152602001600582018054806020026020016040519081016040528092919081815260200182805480156110da57602002820191906000526020600020905b8154815260200190600101908083116110c6575b5050505050815260200160068201548152602001600782015481526020016008820154815260200160098201805461111190611ec2565b80601f016020809104026020016040519081016040528092919081815260200182805461113d90611ec2565b801561118a5780601f1061115f5761010080835404028352916020019161118a565b820191906000526020600020905b81548152906001019060200180831161116d57829003601f168201915b5050505050815250508282815181106111a6576111a56120bf565b5b602002602001018190525080806111bc906120ee565b915050610f8a565b508091505090565b611262816040516024016111e09190612137565b6040516020818303038152906040527f41304fac000000000000000000000000000000000000000000000000000000007bffffffffffffffffffffffffffffffffffffffffffffffffffffffff19166020820180517bffffffffffffffffffffffffffffffffffffffffffffffffffffffff8381831617835250505050611301565b50565b6112fd828260405160240161127b929190612159565b6040516020818303038152906040527f9710a9d0000000000000000000000000000000000000000000000000000000007bffffffffffffffffffffffffffffffffffffffffffffffffffffffff19166020820180517bffffffffffffffffffffffffffffffffffffffffffffffffffffffff8381831617835250505050611301565b5050565b60008151905060006a636f6e736f6c652e6c6f679050602083016000808483855afa5050505050565b604051806101400160405280600073ffffffffffffffffffffffffffffffffffffffff1681526020016000815260200160008152602001600081526020016060815260200160608152602001600081526020016000815260200160008152602001606081525090565b8280548282559060005260206000209081019282156113cf579160200282015b828111156113ce5782518255916020019190600101906113b3565b5b5090506113dc9190611466565b5090565b8280546113ec90611ec2565b90600052602060002090601f01602090048101928261140e5760008555611455565b82601f1061142757805160ff1916838001178555611455565b82800160010185558215611455579182015b82811115611454578251825591602001919060010190611439565b5b5090506114629190611466565b5090565b5b8082111561147f576000816000905550600101611467565b5090565b6000604051905090565b600080fd5b600080fd5b6000819050919050565b6114aa81611497565b81146114b557600080fd5b50565b6000813590506114c7816114a1565b92915050565b6000602082840312156114e3576114e261148d565b5b60006114f1848285016114b8565b91505092915050565b600073ffffffffffffffffffffffffffffffffffffffff82169050919050565b6000611525826114fa565b9050919050565b6115358161151a565b82525050565b6000602082019050611550600083018461152c565b92915050565b61155f8161151a565b82525050565b61156e81611497565b82525050565b600081519050919050565b600082825260208201905092915050565b6000819050602082019050919050565b60006115ac8383611565565b60208301905092915050565b6000602082019050919050565b60006115d082611574565b6115da818561157f565b93506115e583611590565b8060005b838110156116165781516115fd88826115a0565b9750611608836115b8565b9250506001810190506115e9565b5085935050505092915050565b600081519050919050565b600082825260208201905092915050565b60005b8381101561165d578082015181840152602081019050611642565b8381111561166c576000848401525b50505050565b6000601f19601f8301169050919050565b600061168e82611623565b611698818561162e565b93506116a881856020860161163f565b6116b181611672565b840191505092915050565b6000610140830160008301516116d56000860182611556565b5060208301516116e86020860182611565565b5060408301516116fb6040860182611565565b50606083015161170e6060860182611565565b506080830151848203608086015261172682826115c5565b91505060a083015184820360a086015261174082826115c5565b91505060c083015161175560c0860182611565565b5060e083015161176860e0860182611565565b5061010083015161177d610100860182611565565b506101208301518482036101208601526117978282611683565b9150508091505092915050565b600060208201905081810360008301526117be81846116bc565b905092915050565b600081519050919050565b600082825260208201905092915050565b6000819050602082019050919050565b60006117fe8383611556565b60208301905092915050565b6000602082019050919050565b6000611822826117c6565b61182c81856117d1565b9350611837836117e2565b8060005b8381101561186857815161184f88826117f2565b975061185a8361180a565b92505060018101905061183b565b5085935050505092915050565b6000602082019050818103600083015261188f8184611817565b905092915050565b6118a08161151a565b81146118ab57600080fd5b50565b6000813590506118bd81611897565b92915050565b6000602082840312156118d9576118d861148d565b5b60006118e7848285016118ae565b91505092915050565b600080fd5b7f4e487b7100000000000000000000000000000000000000000000000000000000600052604160045260246000fd5b61192d82611672565b810181811067ffffffffffffffff8211171561194c5761194b6118f5565b5b80604052505050565b600061195f611483565b905061196b8282611924565b919050565b600067ffffffffffffffff82111561198b5761198a6118f5565b5b602082029050602081019050919050565b600080fd5b60006119b46119af84611970565b611955565b905080838252602082019050602084028301858111156119d7576119d661199c565b5b835b81811015611a0057806119ec88826114b8565b8452602084019350506020810190506119d9565b5050509392505050565b600082601f830112611a1f57611a1e6118f0565b5b8135611a2f8482602086016119a1565b91505092915050565b600080fd5b600067ffffffffffffffff821115611a5857611a576118f5565b5b611a6182611672565b9050602081019050919050565b82818337600083830152505050565b6000611a90611a8b84611a3d565b611955565b905082815260208101848484011115611aac57611aab611a38565b5b611ab7848285611a6e565b509392505050565b600082601f830112611ad457611ad36118f0565b5b8135611ae4848260208601611a7d565b91505092915050565b60008060008060008060c08789031215611b0a57611b0961148d565b5b6000611b1889828a016114b8565b9650506020611b2989828a016114b8565b9550506040611b3a89828a016114b8565b945050606087013567ffffffffffffffff811115611b5b57611b5a611492565b5b611b6789828a01611a0a565b935050608087013567ffffffffffffffff811115611b8857611b87611492565b5b611b9489828a01611a0a565b92505060a087013567ffffffffffffffff811115611bb557611bb4611492565b5b611bc189828a01611abf565b9150509295509295509295565b611bd781611497565b82525050565b600082825260208201905092915050565b6000611bf982611623565b611c038185611bdd565b9350611c1381856020860161163f565b611c1c81611672565b840191505092915050565b600061010082019050611c3d600083018b61152c565b611c4a602083018a611bce565b611c576040830189611bce565b611c646060830188611bce565b611c716080830187611bce565b611c7e60a0830186611bce565b611c8b60c0830185611bce565b81810360e0830152611c9d8184611bee565b90509998505050505050505050565b6000602082019050611cc16000830184611bce565b92915050565b600081519050919050565b600082825260208201905092915050565b6000819050602082019050919050565b600061014083016000830151611d0c6000860182611556565b506020830151611d1f6020860182611565565b506040830151611d326040860182611565565b506060830151611d456060860182611565565b5060808301518482036080860152611d5d82826115c5565b91505060a083015184820360a0860152611d7782826115c5565b91505060c0830151611d8c60c0860182611565565b5060e0830151611d9f60e0860182611565565b50610100830151611db4610100860182611565565b50610120830151848203610120860152611dce8282611683565b9150508091505092915050565b6000611de78383611cf3565b905092915050565b6000602082019050919050565b6000611e0782611cc7565b611e118185611cd2565b935083602082028501611e2385611ce3565b8060005b85811015611e5f5784840389528151611e408582611ddb565b9450611e4b83611def565b925060208a01995050600181019050611e27565b50829750879550505050505092915050565b60006020820190508181036000830152611e8b8184611dfc565b905092915050565b7f4e487b7100000000000000000000000000000000000000000000000000000000600052602260045260246000fd5b60006002820490506001821680611eda57607f821691505b60208210811415611eee57611eed611e93565b5b50919050565b7f496e76616c696420636f6f7264696e6174657320696e7075742e000000000000600082015250565b6000611f2a601a83611bdd565b9150611f3582611ef4565b602082019050919050565b60006020820190508181036000830152611f5981611f1d565b9050919050565b7f496e76616c69642067616d6520696e666f20696e7075742e0000000000000000600082015250565b6000611f96601883611bdd565b9150611fa182611f60565b602082019050919050565b60006020820190508181036000830152611fc581611f89565b9050919050565b7f4e487b7100000000000000000000000000000000000000000000000000000000600052601160045260246000fd5b600061200682611497565b915061201183611497565b9250827fffffffffffffffffffffffffffffffffffffffffffffffffffffffffffffffff0382111561204657612045611fcc565b5b828201905092915050565b60006080820190506120666000830187611bce565b6120736020830186611bce565b6120806040830185611bce565b61208d6060830184611bce565b95945050505050565b60006040820190506120ab6000830185611bce565b6120b86020830184611bce565b9392505050565b7f4e487b7100000000000000000000000000000000000000000000000000000000600052603260045260246000fd5b60006120f982611497565b91507fffffffffffffffffffffffffffffffffffffffffffffffffffffffffffffffff82141561212c5761212b611fcc565b5b600182019050919050565b600060208201905081810360008301526121518184611bee565b905092915050565b600060408201905081810360008301526121738185611bee565b90506121826020830184611bce565b939250505056fea2646970667358221220951ded1f70f01e55901d3ffe7774ef1bd3ef8068d7785ec9d506b0399150ed4264736f6c63430008080033",
	"linkReferences": {},
	"deployedLinkReferences": {}
}